{
  "contractName": "FlashSwap",
  "abi": [
    {
      "inputs": [
        {
          "internalType": "address",
          "name": "pancakeFactory",
          "type": "address"
        },
        {
          "internalType": "address",
          "name": "apeFactory",
          "type": "address"
        },
        {
          "internalType": "address",
          "name": "wethAddress",
          "type": "address"
        },
        {
          "internalType": "address",
          "name": "apeRouter",
          "type": "address"
        },
        {
          "internalType": "address",
          "name": "pancakeRouter",
          "type": "address"
        },
        {
          "internalType": "address",
          "name": "beneficiaryAddress",
          "type": "address"
        }
      ],
      "stateMutability": "nonpayable",
      "type": "constructor"
    },
    {
      "stateMutability": "payable",
      "type": "receive",
      "payable": true
    },
    {
      "inputs": [
        {
          "internalType": "address",
          "name": "token0",
          "type": "address"
        },
        {
          "internalType": "address",
          "name": "token1",
          "type": "address"
        },
        {
          "internalType": "uint256",
          "name": "amount0",
          "type": "uint256"
        },
        {
          "internalType": "uint256",
          "name": "amount1",
          "type": "uint256"
        },
        {
          "internalType": "address",
          "name": "startFactory",
          "type": "address"
        },
        {
          "internalType": "address",
          "name": "endRouterAddress",
          "type": "address"
        },
        {
          "internalType": "uint256",
          "name": "repay",
          "type": "uint256"
        }
      ],
      "name": "startArbitrage",
      "outputs": [],
      "stateMutability": "nonpayable",
      "type": "function"
    },
    {
      "inputs": [
        {
          "internalType": "address",
          "name": "sender",
          "type": "address"
        },
        {
          "internalType": "uint256",
          "name": "amount0",
          "type": "uint256"
        },
        {
          "internalType": "uint256",
          "name": "amount1",
          "type": "uint256"
        },
        {
          "internalType": "bytes",
          "name": "data",
          "type": "bytes"
        }
      ],
      "name": "pancakeCall",
      "outputs": [],
      "stateMutability": "nonpayable",
      "type": "function"
    }
  ],
  "bytecode": "0x60a06040523480156200001157600080fd5b50604051620018e9380380620018e98339818101604052810190620000379190620001d5565b84600160006101000a81548173ffffffffffffffffffffffffffffffffffffffff021916908373ffffffffffffffffffffffffffffffffffffffff16021790555085600260006101000a81548173ffffffffffffffffffffffffffffffffffffffff021916908373ffffffffffffffffffffffffffffffffffffffff1602179055508373ffffffffffffffffffffffffffffffffffffffff1660808173ffffffffffffffffffffffffffffffffffffffff1660601b81525050806000806101000a81548173ffffffffffffffffffffffffffffffffffffffff021916908373ffffffffffffffffffffffffffffffffffffffff16021790555081600360006101000a81548173ffffffffffffffffffffffffffffffffffffffff021916908373ffffffffffffffffffffffffffffffffffffffff16021790555082600460006101000a81548173ffffffffffffffffffffffffffffffffffffffff021916908373ffffffffffffffffffffffffffffffffffffffff160217905550505050505050620002b9565b600081519050620001cf816200029f565b92915050565b60008060008060008060c08789031215620001ef57600080fd5b6000620001ff89828a01620001be565b96505060206200021289828a01620001be565b95505060406200022589828a01620001be565b94505060606200023889828a01620001be565b93505060806200024b89828a01620001be565b92505060a06200025e89828a01620001be565b9150509295509295509295565b600062000278826200027f565b9050919050565b600073ffffffffffffffffffffffffffffffffffffffff82169050919050565b620002aa816200026b565b8114620002b657600080fd5b50565b60805160601c6115f4620002f56000398061043f528061049c52806104fd528061072052806107b55280610882528061096e52506115f46000f3fe60806040526004361061002d5760003560e01c80630271025e14610039578063848008121461006257610034565b3661003457005b600080fd5b34801561004557600080fd5b50610060600480360381019061005b9190610e8d565b61008b565b005b34801561006e57600080fd5b5061008960048036038101906100849190610f2b565b610226565b005b60008373ffffffffffffffffffffffffffffffffffffffff1663e6a4390589896040518363ffffffff1660e01b81526004016100c8929190611222565b60206040518083038186803b1580156100e057600080fd5b505afa1580156100f4573d6000803e3d6000fd5b505050506040513d601f19601f820116820180604052508101906101189190610e28565b9050600073ffffffffffffffffffffffffffffffffffffffff168173ffffffffffffffffffffffffffffffffffffffff16141561018a576040517f08c379a0000000000000000000000000000000000000000000000000000000008152600401610181906112c0565b60405180910390fd5b8073ffffffffffffffffffffffffffffffffffffffff1663022c0d9f87873087876040516020016101bc92919061124b565b6040516020818303038152906040526040518563ffffffff1660e01b81526004016101ea9493929190611375565b600060405180830381600087803b15801561020457600080fd5b505af1158015610218573d6000803e3d6000fd5b505050505050505050505050565b6060600267ffffffffffffffff8111801561024057600080fd5b5060405190808252806020026020018201604052801561026f5781602001602082028036833780820191505090505b50905060008084848101906102849190610e51565b9150915060008060003373ffffffffffffffffffffffffffffffffffffffff16630dfe16816040518163ffffffff1660e01b815260040160206040518083038186803b1580156102d357600080fd5b505afa1580156102e7573d6000803e3d6000fd5b505050506040513d601f19601f8201168201806040525081019061030b9190610e28565b905060003373ffffffffffffffffffffffffffffffffffffffff1663d21220a76040518163ffffffff1660e01b815260040160206040518083038186803b15801561035557600080fd5b505afa158015610369573d6000803e3d6000fd5b505050506040513d601f19601f8201168201806040525081019061038d9190610e28565b905060008b1461039d578161039f565b805b876000815181106103ac57fe5b602002602001019073ffffffffffffffffffffffffffffffffffffffff16908173ffffffffffffffffffffffffffffffffffffffff168152505060008b146103f457806103f6565b815b8760018151811061040357fe5b602002602001019073ffffffffffffffffffffffffffffffffffffffff16908173ffffffffffffffffffffffffffffffffffffffff16815250507f000000000000000000000000000000000000000000000000000000000000000073ffffffffffffffffffffffffffffffffffffffff168273ffffffffffffffffffffffffffffffffffffffff1614610496578a610498565b895b93507f000000000000000000000000000000000000000000000000000000000000000073ffffffffffffffffffffffffffffffffffffffff168273ffffffffffffffffffffffffffffffffffffffff16146104f357896104f5565b8a5b9250505060007f000000000000000000000000000000000000000000000000000000000000000073ffffffffffffffffffffffffffffffffffffffff168660008151811061053f57fe5b602002602001015173ffffffffffffffffffffffffffffffffffffffff161461057c578560008151811061056f57fe5b6020026020010151610592565b8560018151811061058957fe5b60200260200101515b9050600083111561096c578073ffffffffffffffffffffffffffffffffffffffff1663095ea7b386856040518363ffffffff1660e01b81526004016105d892919061124b565b602060405180830381600087803b1580156105f257600080fd5b505af1158015610606573d6000803e3d6000fd5b505050506040513d601f19601f8201168201806040525081019061062a9190610fec565b5060608573ffffffffffffffffffffffffffffffffffffffff166318cbafe58560008a30426040518663ffffffff1660e01b815260040161066f95949392919061131b565b600060405180830381600087803b15801561068957600080fd5b505af115801561069d573d6000803e3d6000fd5b505050506040513d6000823e3d601f19601f820116820180604052508101906106c69190610fab565b905084816001815181106106d657fe5b60200260200101511161071e576040517f08c379a0000000000000000000000000000000000000000000000000000000008152600401610715906112e0565b60405180910390fd5b7f000000000000000000000000000000000000000000000000000000000000000073ffffffffffffffffffffffffffffffffffffffff1663d0e30db08260018151811061076757fe5b60200260200101516040518263ffffffff1660e01b81526004016000604051808303818588803b15801561079a57600080fd5b505af11580156107ae573d6000803e3d6000fd5b50505050507f000000000000000000000000000000000000000000000000000000000000000073ffffffffffffffffffffffffffffffffffffffff1663a9059cbb33876040518363ffffffff1660e01b815260040161080e9291906111f9565b602060405180830381600087803b15801561082857600080fd5b505af115801561083c573d6000803e3d6000fd5b505050506040513d601f19601f820116820180604052508101906108609190610fec565b506000858260018151811061087157fe5b6020026020010151031115610966577f000000000000000000000000000000000000000000000000000000000000000073ffffffffffffffffffffffffffffffffffffffff1663a9059cbb6000809054906101000a900473ffffffffffffffffffffffffffffffffffffffff1687846001815181106108ec57fe5b6020026020010151036040518363ffffffff1660e01b815260040161091292919061124b565b602060405180830381600087803b15801561092c57600080fd5b505af1158015610940573d6000803e3d6000fd5b505050506040513d601f19601f820116820180604052508101906109649190610fec565b505b50610cd0565b7f000000000000000000000000000000000000000000000000000000000000000073ffffffffffffffffffffffffffffffffffffffff16632e1a7d4d836040518263ffffffff1660e01b81526004016109c59190611300565b600060405180830381600087803b1580156109df57600080fd5b505af11580156109f3573d6000803e3d6000fd5b5050505060608573ffffffffffffffffffffffffffffffffffffffff16637ff36ab54760008a30426040518663ffffffff1660e01b8152600401610a3a9493929190611274565b6000604051808303818588803b158015610a5357600080fd5b505af1158015610a67573d6000803e3d6000fd5b50505050506040513d6000823e3d601f19601f82011682018060405250810190610a919190610fab565b90508481600181518110610aa157fe5b602002602001015111610ae9576040517f08c379a0000000000000000000000000000000000000000000000000000000008152600401610ae0906112e0565b60405180910390fd5b8173ffffffffffffffffffffffffffffffffffffffff1663a9059cbb33876040518363ffffffff1660e01b8152600401610b249291906111f9565b602060405180830381600087803b158015610b3e57600080fd5b505af1158015610b52573d6000803e3d6000fd5b505050506040513d601f19601f82011682018060405250810190610b769190610fec565b5060008582600181518110610b8757fe5b6020026020010151031115610cce578173ffffffffffffffffffffffffffffffffffffffff1663a9059cbb6000809054906101000a900473ffffffffffffffffffffffffffffffffffffffff168473ffffffffffffffffffffffffffffffffffffffff166370a08231306040518263ffffffff1660e01b8152600401610c0d91906111de565b60206040518083038186803b158015610c2557600080fd5b505afa158015610c39573d6000803e3d6000fd5b505050506040513d601f19601f82011682018060405250810190610c5d9190611015565b6040518363ffffffff1660e01b8152600401610c7a92919061124b565b602060405180830381600087803b158015610c9457600080fd5b505af1158015610ca8573d6000803e3d6000fd5b505050506040513d601f19601f82011682018060405250810190610ccc9190610fec565b505b505b5050505050505050505050565b600081359050610cec81611562565b92915050565b600081519050610d0181611562565b92915050565b600081359050610d1681611579565b92915050565b600082601f830112610d2d57600080fd5b8151610d40610d3b826113ee565b6113c1565b91508181835260208401935060208101905083856020840282011115610d6557600080fd5b60005b83811015610d955781610d7b8882610e13565b845260208401935060208301925050600181019050610d68565b5050505092915050565b600081519050610dae81611590565b92915050565b60008083601f840112610dc657600080fd5b8235905067ffffffffffffffff811115610ddf57600080fd5b602083019150836001820283011115610df757600080fd5b9250929050565b600081359050610e0d816115a7565b92915050565b600081519050610e22816115a7565b92915050565b600060208284031215610e3a57600080fd5b6000610e4884828501610cf2565b91505092915050565b60008060408385031215610e6457600080fd5b6000610e7285828601610d07565b9250506020610e8385828601610dfe565b9150509250929050565b600080600080600080600060e0888a031215610ea857600080fd5b6000610eb68a828b01610cdd565b9750506020610ec78a828b01610cdd565b9650506040610ed88a828b01610dfe565b9550506060610ee98a828b01610dfe565b9450506080610efa8a828b01610cdd565b93505060a0610f0b8a828b01610cdd565b92505060c0610f1c8a828b01610dfe565b91505092959891949750929550565b600080600080600060808688031215610f4357600080fd5b6000610f5188828901610cdd565b9550506020610f6288828901610dfe565b9450506040610f7388828901610dfe565b935050606086013567ffffffffffffffff811115610f9057600080fd5b610f9c88828901610db4565b92509250509295509295909350565b600060208284031215610fbd57600080fd5b600082015167ffffffffffffffff811115610fd757600080fd5b610fe384828501610d1c565b91505092915050565b600060208284031215610ffe57600080fd5b600061100c84828501610d9f565b91505092915050565b60006020828403121561102757600080fd5b600061103584828501610e13565b91505092915050565b600061104a8383611065565b60208301905092915050565b61105f816114d6565b82525050565b61106e8161147c565b82525050565b61107d8161147c565b82525050565b600061108e82611426565b6110988185611449565b93506110a383611416565b8060005b838110156110d45781516110bb888261103e565b97506110c68361143c565b9250506001810190506110a7565b5085935050505092915050565b60006110ec82611431565b6110f6818561145a565b935061110681856020860161151e565b61110f81611551565b840191505092915050565b611123816114e8565b82525050565b600061113660188361146b565b91507f5468697320706f6f6c20646f6573206e6f7420657869737400000000000000006000830152602082019050919050565b600061117660278361146b565b91507f4661696c656420746f2067657420656e6f7567682066726f6d2073776170207460008301527f6f207265706179000000000000000000000000000000000000000000000000006020830152604082019050919050565b6111d8816114cc565b82525050565b60006020820190506111f36000830184611056565b92915050565b600060408201905061120e6000830185611056565b61121b60208301846111cf565b9392505050565b60006040820190506112376000830185611074565b6112446020830184611074565b9392505050565b60006040820190506112606000830185611074565b61126d60208301846111cf565b9392505050565b6000608082019050611289600083018761111a565b818103602083015261129b8186611083565b90506112aa6040830185611056565b6112b760608301846111cf565b95945050505050565b600060208201905081810360008301526112d981611129565b9050919050565b600060208201905081810360008301526112f981611169565b9050919050565b600060208201905061131560008301846111cf565b92915050565b600060a08201905061133060008301886111cf565b61133d602083018761111a565b818103604083015261134f8186611083565b905061135e6060830185611056565b61136b60808301846111cf565b9695505050505050565b600060808201905061138a60008301876111cf565b61139760208301866111cf565b6113a46040830185611056565b81810360608301526113b681846110e1565b905095945050505050565b6000604051905081810181811067ffffffffffffffff821117156113e457600080fd5b8060405250919050565b600067ffffffffffffffff82111561140557600080fd5b602082029050602081019050919050565b6000819050602082019050919050565b600081519050919050565b600081519050919050565b6000602082019050919050565b600082825260208201905092915050565b600082825260208201905092915050565b600082825260208201905092915050565b6000611487826114ac565b9050919050565b6000611499826114ac565b9050919050565b60008115159050919050565b600073ffffffffffffffffffffffffffffffffffffffff82169050919050565b6000819050919050565b60006114e1826114fa565b9050919050565b60006114f3826114cc565b9050919050565b60006115058261150c565b9050919050565b6000611517826114ac565b9050919050565b60005b8381101561153c578082015181840152602081019050611521565b8381111561154b576000848401525b50505050565b6000601f19601f8301169050919050565b61156b8161147c565b811461157657600080fd5b50565b6115828161148e565b811461158d57600080fd5b50565b611599816114a0565b81146115a457600080fd5b50565b6115b0816114cc565b81146115bb57600080fd5b5056fea2646970667358221220bb1bdaf3a3220cbf61d378b12c0a1f136b20b6f83375d2a8a973962b3e9c06f764736f6c63430006060033",
  "immutableReferences": {
    "12": [
      {
        "length": 32,
        "start": 1087
      },
      {
        "length": 32,
        "start": 1180
      },
      {
        "length": 32,
        "start": 1277
      },
      {
        "length": 32,
        "start": 1824
      },
      {
        "length": 32,
        "start": 1973
      },
      {
        "length": 32,
        "start": 2178
      },
      {
        "length": 32,
        "start": 2414
      }
    ]
  },
  "source": "pragma solidity =0.6.6;\npragma experimental ABIEncoderV2;\n\n\n\n\n\nimport './utils/SafeMath.sol';\nimport './UniswapV2Library.sol';\nimport './interfaces/IERC20.sol';\nimport './interfaces/IUniswapV2Pair.sol';\nimport './interfaces/IUniswapV2Factory.sol';\nimport './interfaces/IUniswapV2Router01.sol';\nimport './interfaces/IUniswapV2Router02.sol';\nimport './interfaces/IWETH.sol'; \n\n\ncontract FlashSwap {\n    IWETH immutable WETH;\n    address Beneficiary;\n    address ApeSwapFactory;\n    address PancakeFactory;\n    address PancakeRouter;\n    address ApeRouter;\n    constructor(address pancakeFactory, address apeFactory, address wethAddress , address apeRouter, address pancakeRouter, address beneficiaryAddress) public {\n         ApeSwapFactory = apeFactory;\n         PancakeFactory = pancakeFactory;\n         WETH = IWETH(wethAddress);\n         Beneficiary = beneficiaryAddress;\n         PancakeRouter = pancakeRouter;\n         ApeRouter = apeRouter; \n    }\n    \n    \n    function startArbitrage(\n    address token0,\n    address token1,\n    uint amount0, \n    uint amount1,\n    address startFactory,\n    address endRouterAddress,\n    uint repay\n  ) external {\n  \n    address pairAddress =   IUniswapV2Factory(startFactory).getPair(token0, token1);\n    require(pairAddress != address(0), 'This pool does not exist');\n    IUniswapV2Pair(pairAddress).swap(\n      amount0, \n      amount1, \n      address(this), \n      abi.encode(endRouterAddress, repay) //not empty bytes param will trigger flashloan\n    );\n  }\n    \n    receive() external payable {}\n\n function pancakeCall(address sender, uint amount0, uint amount1, bytes calldata data) external {\n        address[] memory path = new address[](2);\n       ( address endRouter, uint repay) = abi.decode(data, (address, uint));\n        uint amountToken;\n        uint amountEth;\n        \n        \n        // scope for token{0,1}, avoids stack too deep errors\n        {\n        address token0 = IUniswapV2Pair(msg.sender).token0();\n        address token1 = IUniswapV2Pair(msg.sender).token1();\n        path[0] = amount0 == 0 ? token1 : token0; \n        path[1] = amount0 == 0 ? token0 : token1; \n\n        amountToken = token0 == address(WETH) ? amount1 : amount0;    \n        amountEth = token0 == address(WETH) ? amount0 : amount1;\n\n        }\n        IERC20 token = IERC20(path[0] == address(WETH) ? path[1] : path[0]);\n\n        if (amountToken > 0) {\n            token.approve(endRouter, amountToken);\n            uint[] memory amountReceived = IUniswapV2Router02(endRouter).swapExactTokensForETH(amountToken, 0, path,address(this), now);\n            require(amountReceived[1] > repay, \"Failed to get enough from swap to repay\"); \n            WETH.deposit{value: amountReceived[1]}();\n            WETH.transfer(msg.sender, repay);\n              if(amountReceived[1] - repay > 0) {\n                WETH.transfer(Beneficiary, (amountReceived[1] - repay));\n              }\n        } else {\n            WETH.withdraw(amountEth);\n            uint [] memory amountReceived = IUniswapV2Router02(endRouter).swapExactETHForTokens{value: address(this).balance}(0, path, address(this), now);\n            require(amountReceived[1] > repay, \"Failed to get enough from swap to repay\"); // fail if we didn't get enough tokens back to repay our flash loan\n            token.transfer(msg.sender, repay); // return tokens to V2 pair\n            if(amountReceived[1] - repay > 0) {\n              token.transfer(Beneficiary, token.balanceOf(address(this))); \n              }\n            \n        }\n }\n}",
  "sourcePath": "/Users/acetravelstoursltd/NewBscFlash/contracts/Flashloan.sol",
  "compiler": {
    "name": "solc",
    "version": "0.6.6+commit.6c089d02.Emscripten.clang"
  },
  "schemaVersion": "3.4.3",
  "updatedAt": "2022-02-24T12:37:56.704Z",
  "networkType": "ethereum",
  "devdoc": {
    "methods": {}
  },
  "userdoc": {
    "methods": {}
  }
}